{
  "contractName": "Votazione",
  "abi": [
    {
      "inputs": [],
      "payable": false,
      "stateMutability": "nonpayable",
      "type": "constructor"
    },
    {
      "anonymous": false,
      "inputs": [
        {
          "indexed": true,
          "internalType": "uint256",
          "name": "_casataId",
          "type": "uint256"
        }
      ],
      "name": "votoEvent",
      "type": "event"
    },
    {
      "constant": true,
      "inputs": [
        {
          "internalType": "uint256",
          "name": "",
          "type": "uint256"
        }
      ],
      "name": "casate",
      "outputs": [
        {
          "internalType": "uint256",
          "name": "id",
          "type": "uint256"
        },
        {
          "internalType": "string",
          "name": "nome",
          "type": "string"
        },
        {
          "internalType": "uint256",
          "name": "nvoti",
          "type": "uint256"
        }
      ],
      "payable": false,
      "stateMutability": "view",
      "type": "function"
    },
    {
      "constant": true,
      "inputs": [],
      "name": "casateCount",
      "outputs": [
        {
          "internalType": "uint256",
          "name": "",
          "type": "uint256"
        }
      ],
      "payable": false,
      "stateMutability": "view",
      "type": "function"
    },
    {
      "constant": true,
      "inputs": [
        {
          "internalType": "address",
          "name": "",
          "type": "address"
        }
      ],
      "name": "votanti",
      "outputs": [
        {
          "internalType": "bool",
          "name": "",
          "type": "bool"
        }
      ],
      "payable": false,
      "stateMutability": "view",
      "type": "function"
    },
    {
      "constant": false,
      "inputs": [
        {
          "internalType": "uint256",
          "name": "_casataId",
          "type": "uint256"
        }
      ],
      "name": "voto",
      "outputs": [],
      "payable": false,
      "stateMutability": "nonpayable",
      "type": "function"
    }
  ],
  "bytecode": "0x608060405234801561001057600080fd5b506100556040518060400160405280600a81526020017f477269666f6e646f726f0000000000000000000000000000000000000000000081525061012660201b60201c565b6100996040518060400160405280600a81526020017f536572706576657264650000000000000000000000000000000000000000000081525061012660201b60201c565b6100dd6040518060400160405280600a81526020017f546173736f726f73736f0000000000000000000000000000000000000000000081525061012660201b60201c565b6101216040518060400160405280600981526020017f436f72766f6e65726f000000000000000000000000000000000000000000000081525061012660201b60201c565b610246565b60026000815480929190600101919050555060405180606001604052806002548152602001828152602001600081525060008060025481526020019081526020016000206000820151816000015560208201518160010190805190602001906101909291906101a1565b506040820151816002015590505050565b828054600181600116156101000203166002900490600052602060002090601f016020900481019282601f106101e257805160ff1916838001178555610210565b82800160010185558215610210579182015b8281111561020f5782518255916020019190600101906101f4565b5b50905061021d9190610221565b5090565b61024391905b8082111561023f576000816000905550600101610227565b5090565b90565b6103e9806102556000396000f3fe608060405234801561001057600080fd5b506004361061004c5760003560e01c80633375bc8d146100515780633b2f60651461006f5780637c2dc512146100cb578063e7ff7b2d146100f9575b600080fd5b6100596101ae565b6040518082815260200191505060405180910390f35b6100b16004803603602081101561008557600080fd5b81019080803573ffffffffffffffffffffffffffffffffffffffff1690602001909291905050506101b4565b604051808215151515815260200191505060405180910390f35b6100f7600480360360208110156100e157600080fd5b81019080803590602001909291905050506101d4565b005b6101256004803603602081101561010f57600080fd5b81019080803590602001909291905050506102f2565b6040518084815260200180602001838152602001828103825284818151815260200191508051906020019080838360005b83811015610171578082015181840152602081019050610156565b50505050905090810190601f16801561019e5780820380516001836020036101000a031916815260200191505b5094505050505060405180910390f35b60025481565b60016020528060005260406000206000915054906101000a900460ff1681565b600160003373ffffffffffffffffffffffffffffffffffffffff1673ffffffffffffffffffffffffffffffffffffffff16815260200190815260200160002060009054906101000a900460ff161561022b57600080fd5b60008111801561023d57506002548111155b61024657600080fd5b60018060003373ffffffffffffffffffffffffffffffffffffffff1673ffffffffffffffffffffffffffffffffffffffff16815260200190815260200160002060006101000a81548160ff02191690831515021790555060008082815260200190815260200160002060020160008154809291906001019190505550807fbf3bef754e1bbd498726a68ea7fe2f76ea7697623489d3c02c9e3e834504c8ac60405160405180910390a250565b6000602052806000526040600020600091509050806000015490806001018054600181600116156101000203166002900480601f0160208091040260200160405190810160405280929190818152602001828054600181600116156101000203166002900480156103a45780601f10610379576101008083540402835291602001916103a4565b820191906000526020600020905b81548152906001019060200180831161038757829003601f168201915b505050505090806002015490508356fea265627a7a72315820407ef6859c502d69cc3462b3b7bfe54dfcf7d324eb1cea062510729f7fa8fa1f64736f6c63430005100032",
  "source": "pragma solidity >=0.4.22 <=0.8.12;\n\ncontract Votazione{\n//Struttura di una casata\n  struct Casata{\n    uint id;\n    string nome;\n    uint nvoti;\n  }\n  \n //mapping per tenere traccia delle casate\n   mapping(uint => Casata) public casate;\n   \n //mapping per tenere traccia degli account che hanno votato\n   mapping(address => bool) public votanti;\n   \n //contatore per conoscere il n. di casate che partecipana alla votazione\n   uint public casateCount;\n   \n //dichiaro l'evento voto  \n   event votoEvent(uint indexed _casataId);\n   \n /*funzione per aggiungere nuove casate al mapping precedente\n è privata perchè la chiamata deve avvenire solo all'interno del contratto*/\n    function addCasata(string memory _name) private {\n      casateCount++;\n      casate[casateCount] = Casata(casateCount, _name, 0);\n    }\n //la funzione è pubblica perchè la chiamata deve avvenire da un account esterno\n    function voto(uint _casataId) public {\n        //richiede che non abbia già votato\n        require(!votanti[msg.sender]);\n\n        //richiede un casata valida\n        require(_casataId > 0 && _casataId <= casateCount);\n\n        //registra il voto dell'account corrente\n        votanti[msg.sender] = true;\n\n        //incrementa in numero di voti per la casata scelta\n        casate[_casataId].nvoti++;\n\n        //chiama l'evento\n        emit votoEvent(_casataId);\n    }\n    \n //costruttore\n    constructor() public {\n      addCasata(\"Grifondoro\");\n      addCasata(\"Serpeverde\");\n      addCasata(\"Tassorosso\");\n      addCasata(\"Corvonero\");\n    }\n  }\n",
  "sourcePath": "/home/studente/Desktop/HarryPotter/contracts/Votazione.sol",
  "compiler": {
    "name": "solc",
    "version": "0.5.16+commit.9c3226ce.Emscripten.clang"
  },
  "schemaVersion": "3.4.3",
  "updatedAt": "2023-03-07T12:11:31.736Z",
  "networkType": "ethereum",
  "devdoc": {
    "methods": {}
  },
  "userdoc": {
    "methods": {}
  }
}